{
  "_format": "hh-sol-artifact-1",
  "contractName": "HandshakeTokenTransfer",
  "sourceName": "contracts/handshake.sol",
  "abi": [
    {
      "inputs": [],
      "stateMutability": "nonpayable",
      "type": "constructor"
    },
    {
      "inputs": [],
      "name": "ECDSAInvalidSignature",
      "type": "error"
    },
    {
      "inputs": [
        {
          "internalType": "uint256",
          "name": "length",
          "type": "uint256"
        }
      ],
      "name": "ECDSAInvalidSignatureLength",
      "type": "error"
    },
    {
      "inputs": [
        {
          "internalType": "bytes32",
          "name": "s",
          "type": "bytes32"
        }
      ],
      "name": "ECDSAInvalidSignatureS",
      "type": "error"
    },
    {
      "inputs": [],
      "name": "InvalidShortString",
      "type": "error"
    },
    {
      "inputs": [
        {
          "internalType": "string",
          "name": "str",
          "type": "string"
        }
      ],
      "name": "StringTooLong",
      "type": "error"
    },
    {
      "anonymous": false,
      "inputs": [],
      "name": "EIP712DomainChanged",
      "type": "event"
    },
    {
      "anonymous": false,
      "inputs": [
        {
          "indexed": true,
          "internalType": "uint256",
          "name": "id",
          "type": "uint256"
        },
        {
          "indexed": true,
          "internalType": "address",
          "name": "sender",
          "type": "address"
        },
        {
          "indexed": true,
          "internalType": "address",
          "name": "receiver",
          "type": "address"
        },
        {
          "indexed": false,
          "internalType": "uint256",
          "name": "amount",
          "type": "uint256"
        }
      ],
      "name": "TransactionInitiated",
      "type": "event"
    },
    {
      "anonymous": false,
      "inputs": [
        {
          "indexed": true,
          "internalType": "uint256",
          "name": "id",
          "type": "uint256"
        },
        {
          "indexed": true,
          "internalType": "address",
          "name": "signer",
          "type": "address"
        }
      ],
      "name": "TransactionSigned",
      "type": "event"
    },
    {
      "inputs": [],
      "name": "eip712Domain",
      "outputs": [
        {
          "internalType": "bytes1",
          "name": "fields",
          "type": "bytes1"
        },
        {
          "internalType": "string",
          "name": "name",
          "type": "string"
        },
        {
          "internalType": "string",
          "name": "version",
          "type": "string"
        },
        {
          "internalType": "uint256",
          "name": "chainId",
          "type": "uint256"
        },
        {
          "internalType": "address",
          "name": "verifyingContract",
          "type": "address"
        },
        {
          "internalType": "bytes32",
          "name": "salt",
          "type": "bytes32"
        },
        {
          "internalType": "uint256[]",
          "name": "extensions",
          "type": "uint256[]"
        }
      ],
      "stateMutability": "view",
      "type": "function"
    },
    {
      "inputs": [
        {
          "internalType": "bytes",
          "name": "signature",
          "type": "bytes"
        },
        {
          "components": [
            {
              "internalType": "address",
              "name": "sender",
              "type": "address"
            },
            {
              "internalType": "address",
              "name": "receiver",
              "type": "address"
            },
            {
              "internalType": "uint256",
              "name": "amount",
              "type": "uint256"
            },
            {
              "internalType": "bool",
              "name": "receiverSigned",
              "type": "bool"
            },
            {
              "internalType": "address",
              "name": "tokenAddress",
              "type": "address"
            }
          ],
          "internalType": "struct HandshakeTokenTransfer.Transaction",
          "name": "_transaction",
          "type": "tuple"
        }
      ],
      "name": "initiateTransaction",
      "outputs": [
        {
          "internalType": "address",
          "name": "",
          "type": "address"
        }
      ],
      "stateMutability": "view",
      "type": "function"
    },
    {
      "inputs": [
        {
          "internalType": "bytes",
          "name": "signature",
          "type": "bytes"
        },
        {
          "components": [
            {
              "internalType": "address",
              "name": "sender",
              "type": "address"
            },
            {
              "internalType": "address",
              "name": "receiver",
              "type": "address"
            },
            {
              "internalType": "uint256",
              "name": "amount",
              "type": "uint256"
            },
            {
              "internalType": "bool",
              "name": "receiverSigned",
              "type": "bool"
            },
            {
              "internalType": "address",
              "name": "tokenAddress",
              "type": "address"
            }
          ],
          "internalType": "struct HandshakeTokenTransfer.Transaction",
          "name": "_transaction",
          "type": "tuple"
        }
      ],
      "name": "signByReceiver",
      "outputs": [
        {
          "internalType": "address",
          "name": "",
          "type": "address"
        }
      ],
      "stateMutability": "view",
      "type": "function"
    },
    {
      "inputs": [
        {
          "internalType": "bytes",
          "name": "senderSign",
          "type": "bytes"
        },
        {
          "internalType": "bytes",
          "name": "receiverSign",
          "type": "bytes"
        },
        {
          "internalType": "uint256",
          "name": "deadline",
          "type": "uint256"
        },
        {
          "components": [
            {
              "internalType": "address",
              "name": "sender",
              "type": "address"
            },
            {
              "internalType": "address",
              "name": "receiver",
              "type": "address"
            },
            {
              "internalType": "uint256",
              "name": "amount",
              "type": "uint256"
            },
            {
              "internalType": "bool",
              "name": "receiverSigned",
              "type": "bool"
            },
            {
              "internalType": "address",
              "name": "tokenAddress",
              "type": "address"
            }
          ],
          "internalType": "struct HandshakeTokenTransfer.Transaction",
          "name": "_transaction",
          "type": "tuple"
        },
        {
          "internalType": "uint8",
          "name": "v",
          "type": "uint8"
        },
        {
          "internalType": "bytes32",
          "name": "r",
          "type": "bytes32"
        },
        {
          "internalType": "bytes32",
          "name": "s",
          "type": "bytes32"
        }
      ],
      "name": "transferFromWithPermit",
      "outputs": [],
      "stateMutability": "nonpayable",
      "type": "function"
    },
    {
      "inputs": [
        {
          "internalType": "bytes",
          "name": "senderSign",
          "type": "bytes"
        },
        {
          "internalType": "bytes",
          "name": "receiverSign",
          "type": "bytes"
        },
        {
          "components": [
            {
              "internalType": "address",
              "name": "sender",
              "type": "address"
            },
            {
              "internalType": "address",
              "name": "receiver",
              "type": "address"
            },
            {
              "internalType": "uint256",
              "name": "amount",
              "type": "uint256"
            },
            {
              "internalType": "bool",
              "name": "receiverSigned",
              "type": "bool"
            },
            {
              "internalType": "address",
              "name": "tokenAddress",
              "type": "address"
            }
          ],
          "internalType": "struct HandshakeTokenTransfer.Transaction",
          "name": "_transaction",
          "type": "tuple"
        }
      ],
      "name": "transferNative",
      "outputs": [],
      "stateMutability": "payable",
      "type": "function"
    },
    {
      "inputs": [
        {
          "internalType": "bytes",
          "name": "senderSign",
          "type": "bytes"
        },
        {
          "internalType": "bytes",
          "name": "receiverSign",
          "type": "bytes"
        },
        {
          "components": [
            {
              "internalType": "address",
              "name": "sender",
              "type": "address"
            },
            {
              "internalType": "address",
              "name": "receiver",
              "type": "address"
            },
            {
              "internalType": "uint256",
              "name": "amount",
              "type": "uint256"
            },
            {
              "internalType": "bool",
              "name": "receiverSigned",
              "type": "bool"
            },
            {
              "internalType": "address",
              "name": "tokenAddress",
              "type": "address"
            }
          ],
          "internalType": "struct HandshakeTokenTransfer.Transaction",
          "name": "_transaction",
          "type": "tuple"
        }
      ],
      "name": "transferTokens",
      "outputs": [],
      "stateMutability": "nonpayable",
      "type": "function"
    }
  ],
  "bytecode": "0x6101606040527f6916ad24b615fd66f800bfbdb712aeeb780df316a4ba771afc1f1f478ecf92c66002553480156200003657600080fd5b506040518060400160405280601681526020017f48616e647368616b65546f6b656e5472616e73666572000000000000000000008152506040518060400160405280600181526020017f3100000000000000000000000000000000000000000000000000000000000000815250620000b96000836200015960201b90919060201c565b6101208181525050620000d76001826200015960201b90919060201c565b6101408181525050818051906020012060e08181525050808051906020012061010081815250504660a0818152505062000116620001b160201b60201c565b608081815250503073ffffffffffffffffffffffffffffffffffffffff1660c08173ffffffffffffffffffffffffffffffffffffffff1681525050505062000809565b60006020835110156200017f5762000177836200020e60201b60201c565b9050620001ab565b8262000191836200027b60201b60201c565b6000019081620001a29190620004ff565b5060ff60001b90505b92915050565b60007f8b73c3c69bb8fe3d512ecc4cf759cc79239f7b179b0ffacaa9a75d522b39400f60e051610100514630604051602001620001f395949392919062000657565b60405160208183030381529060405280519060200120905090565b600080829050601f815111156200025e57826040517f305a27a900000000000000000000000000000000000000000000000000000000815260040162000255919062000743565b60405180910390fd5b8051816200026c9062000799565b60001c1760001b915050919050565b6000819050919050565b600081519050919050565b7f4e487b7100000000000000000000000000000000000000000000000000000000600052604160045260246000fd5b7f4e487b7100000000000000000000000000000000000000000000000000000000600052602260045260246000fd5b600060028204905060018216806200030757607f821691505b6020821081036200031d576200031c620002bf565b5b50919050565b60008190508160005260206000209050919050565b60006020601f8301049050919050565b600082821b905092915050565b600060088302620003877fffffffffffffffffffffffffffffffffffffffffffffffffffffffffffffffff8262000348565b62000393868362000348565b95508019841693508086168417925050509392505050565b6000819050919050565b6000819050919050565b6000620003e0620003da620003d484620003ab565b620003b5565b620003ab565b9050919050565b6000819050919050565b620003fc83620003bf565b620004146200040b82620003e7565b84845462000355565b825550505050565b600090565b6200042b6200041c565b62000438818484620003f1565b505050565b5b8181101562000460576200045460008262000421565b6001810190506200043e565b5050565b601f821115620004af57620004798162000323565b620004848462000338565b8101602085101562000494578190505b620004ac620004a38562000338565b8301826200043d565b50505b505050565b600082821c905092915050565b6000620004d460001984600802620004b4565b1980831691505092915050565b6000620004ef8383620004c1565b9150826002028217905092915050565b6200050a8262000285565b67ffffffffffffffff81111562000526576200052562000290565b5b620005328254620002ee565b6200053f82828562000464565b600060209050601f83116001811462000577576000841562000562578287015190505b6200056e8582620004e1565b865550620005de565b601f198416620005878662000323565b60005b82811015620005b1578489015182556001820191506020850194506020810190506200058a565b86831015620005d15784890151620005cd601f891682620004c1565b8355505b6001600288020188555050505b505050505050565b6000819050919050565b620005fb81620005e6565b82525050565b6200060c81620003ab565b82525050565b600073ffffffffffffffffffffffffffffffffffffffff82169050919050565b60006200063f8262000612565b9050919050565b620006518162000632565b82525050565b600060a0820190506200066e6000830188620005f0565b6200067d6020830187620005f0565b6200068c6040830186620005f0565b6200069b606083018562000601565b620006aa608083018462000646565b9695505050505050565b600082825260208201905092915050565b60005b83811015620006e5578082015181840152602081019050620006c8565b60008484015250505050565b6000601f19601f8301169050919050565b60006200070f8262000285565b6200071b8185620006b4565b93506200072d818560208601620006c5565b6200073881620006f1565b840191505092915050565b600060208201905081810360008301526200075f818462000702565b905092915050565b600081519050919050565b6000819050602082019050919050565b6000620007908251620005e6565b80915050919050565b6000620007a68262000767565b82620007b28462000772565b9050620007bf8162000782565b925060208210156200080257620007fd7fffffffffffffffffffffffffffffffffffffffffffffffffffffffffffffffff8360200360080262000348565b831692505b5050919050565b60805160a05160c05160e051610100516101205161014051612093620008646000396000610e2501526000610dea01526000611205015260006111e401526000610e5b01526000610eb101526000610eda01526120936000f3fe6080604052600436106100555760003560e01c80635168d08b1461005a57806383e4c44b1461009757806384b0196e146100b35780639caeaf12146100e4578063d0f930ac1461010d578063fe5cf9b814610136575b600080fd5b34801561006657600080fd5b50610081600480360381019061007c91906116c4565b610173565b60405161008e919061172f565b60405180910390f35b6100b160048036038101906100ac919061174a565b6102b2565b005b3480156100bf57600080fd5b506100c8610531565b6040516100db9796959493929190611975565b60405180910390f35b3480156100f057600080fd5b5061010b6004803603810190610106919061174a565b6105db565b005b34801561011957600080fd5b50610134600480360381019061012f9190611a5e565b6108e4565b005b34801561014257600080fd5b5061015d600480360381019061015891906116c4565b610c7a565b60405161016a919061172f565b60405180910390f35b6000808260400151116101bb576040517f08c379a00000000000000000000000000000000000000000000000000000000081526004016101b290611b88565b60405180910390fd5b600073ffffffffffffffffffffffffffffffffffffffff16826000015173ffffffffffffffffffffffffffffffffffffffff160361022e576040517f08c379a000000000000000000000000000000000000000000000000000000000815260040161022590611bf4565b60405180910390fd5b60007f8fa1830c13ab6573ada8d16813cec1fdac08905a24105033477a97e4d6d8e1bc8360000151846020015185604001516040516020016102739493929190611c14565b604051602081830303815290604052805190602001209050600061029682610d9b565b905060006102a48287610db5565b905080935050505092915050565b60008160400151116102f9576040517f08c379a00000000000000000000000000000000000000000000000000000000081526004016102f090611b88565b60405180910390fd5b600073ffffffffffffffffffffffffffffffffffffffff16816020015173ffffffffffffffffffffffffffffffffffffffff160361036c576040517f08c379a000000000000000000000000000000000000000000000000000000000815260040161036390611bf4565b60405180910390fd5b600073ffffffffffffffffffffffffffffffffffffffff16816000015173ffffffffffffffffffffffffffffffffffffffff16036103df576040517f08c379a00000000000000000000000000000000000000000000000000000000081526004016103d690611ca5565b60405180910390fd5b60006103eb8483610173565b905060006103f98484610c7a565b9050826000015173ffffffffffffffffffffffffffffffffffffffff168273ffffffffffffffffffffffffffffffffffffffff161461046d576040517f08c379a000000000000000000000000000000000000000000000000000000000815260040161046490611d11565b60405180910390fd5b826020015173ffffffffffffffffffffffffffffffffffffffff168173ffffffffffffffffffffffffffffffffffffffff16146104df576040517f08c379a00000000000000000000000000000000000000000000000000000000081526004016104d690611d7d565b60405180910390fd5b826020015173ffffffffffffffffffffffffffffffffffffffff166108fc349081150290604051600060405180830381858888f19350505050158015610529573d6000803e3d6000fd5b505050505050565b600060608060008060006060610545610de1565b61054d610e1c565b46306000801b600067ffffffffffffffff81111561056e5761056d61143c565b5b60405190808252806020026020018201604052801561059c5781602001602082028036833780820191505090505b507f0f00000000000000000000000000000000000000000000000000000000000000959493929190965096509650965096509650965090919293949596565b6000816040015111610622576040517f08c379a000000000000000000000000000000000000000000000000000000000815260040161061990611b88565b60405180910390fd5b600073ffffffffffffffffffffffffffffffffffffffff16816020015173ffffffffffffffffffffffffffffffffffffffff1603610695576040517f08c379a000000000000000000000000000000000000000000000000000000000815260040161068c90611bf4565b60405180910390fd5b600073ffffffffffffffffffffffffffffffffffffffff16816000015173ffffffffffffffffffffffffffffffffffffffff1603610708576040517f08c379a00000000000000000000000000000000000000000000000000000000081526004016106ff90611ca5565b60405180910390fd5b60006107148483610173565b905060006107228484610c7a565b9050826000015173ffffffffffffffffffffffffffffffffffffffff168273ffffffffffffffffffffffffffffffffffffffff1614610796576040517f08c379a000000000000000000000000000000000000000000000000000000000815260040161078d90611d11565b60405180910390fd5b826020015173ffffffffffffffffffffffffffffffffffffffff168173ffffffffffffffffffffffffffffffffffffffff1614610808576040517f08c379a00000000000000000000000000000000000000000000000000000000081526004016107ff90611d7d565b60405180910390fd5b6000836080015190508073ffffffffffffffffffffffffffffffffffffffff166323b872dd8560000151866020015187604001516040518463ffffffff1660e01b815260040161085a93929190611d9d565b6020604051808303816000875af1158015610879573d6000803e3d6000fd5b505050506040513d601f19601f8201168201806040525081019061089d9190611de9565b6108dc576040517f08c379a00000000000000000000000000000000000000000000000000000000081526004016108d390611e62565b60405180910390fd5b505050505050565b600084604001511161092b576040517f08c379a000000000000000000000000000000000000000000000000000000000815260040161092290611b88565b60405180910390fd5b600073ffffffffffffffffffffffffffffffffffffffff16846020015173ffffffffffffffffffffffffffffffffffffffff160361099e576040517f08c379a000000000000000000000000000000000000000000000000000000000815260040161099590611bf4565b60405180910390fd5b600073ffffffffffffffffffffffffffffffffffffffff16846000015173ffffffffffffffffffffffffffffffffffffffff1603610a11576040517f08c379a0000000000000000000000000000000000000000000000000000000008152600401610a0890611ca5565b60405180910390fd5b6000610a1d8886610173565b90506000610a2b8887610c7a565b9050856000015173ffffffffffffffffffffffffffffffffffffffff168273ffffffffffffffffffffffffffffffffffffffff1614610a9f576040517f08c379a0000000000000000000000000000000000000000000000000000000008152600401610a9690611d11565b60405180910390fd5b856020015173ffffffffffffffffffffffffffffffffffffffff168173ffffffffffffffffffffffffffffffffffffffff1614610b11576040517f08c379a0000000000000000000000000000000000000000000000000000000008152600401610b0890611d7d565b60405180910390fd5b6000866080015190506000876080015190508173ffffffffffffffffffffffffffffffffffffffff1663d505accf8960000151308b604001518d8c8c8c6040518863ffffffff1660e01b8152600401610b709796959493929190611e91565b600060405180830381600087803b158015610b8a57600080fd5b505af1158015610b9e573d6000803e3d6000fd5b505050508073ffffffffffffffffffffffffffffffffffffffff166323b872dd89600001518a602001518b604001516040518463ffffffff1660e01b8152600401610beb93929190611d9d565b6020604051808303816000875af1158015610c0a573d6000803e3d6000fd5b505050506040513d601f19601f82011682018060405250810190610c2e9190611de9565b610c6d576040517f08c379a0000000000000000000000000000000000000000000000000000000008152600401610c6490611e62565b60405180910390fd5b5050505050505050505050565b600080826040015111610cc2576040517f08c379a0000000000000000000000000000000000000000000000000000000008152600401610cb990611b88565b60405180910390fd5b600073ffffffffffffffffffffffffffffffffffffffff16826020015173ffffffffffffffffffffffffffffffffffffffff1603610d35576040517f08c379a0000000000000000000000000000000000000000000000000000000008152600401610d2c90611bf4565b60405180910390fd5b6000600254836000015184602001518560400151604051602001610d5c9493929190611c14565b6040516020818303038152906040528051906020012090506000610d7f82610d9b565b90506000610d8d8287610db5565b905080935050505092915050565b6000610dae610da8610e57565b83610f0e565b9050919050565b600080600080610dc58686610f4f565b925092509250610dd58282610fab565b82935050505092915050565b6060610e1760007f000000000000000000000000000000000000000000000000000000000000000061110f90919063ffffffff16565b905090565b6060610e5260017f000000000000000000000000000000000000000000000000000000000000000061110f90919063ffffffff16565b905090565b60007f000000000000000000000000000000000000000000000000000000000000000073ffffffffffffffffffffffffffffffffffffffff163073ffffffffffffffffffffffffffffffffffffffff16148015610ed357507f000000000000000000000000000000000000000000000000000000000000000046145b15610f00577f00000000000000000000000000000000000000000000000000000000000000009050610f0b565b610f086111bf565b90505b90565b60006040517f190100000000000000000000000000000000000000000000000000000000000081528360028201528260228201526042812091505092915050565b60008060006041845103610f945760008060006020870151925060408701519150606087015160001a9050610f8688828585611255565b955095509550505050610fa4565b60006002855160001b9250925092505b9250925092565b60006003811115610fbf57610fbe611f00565b5b826003811115610fd257610fd1611f00565b5b031561110b5760016003811115610fec57610feb611f00565b5b826003811115610fff57610ffe611f00565b5b03611036576040517ff645eedf00000000000000000000000000000000000000000000000000000000815260040160405180910390fd5b6002600381111561104a57611049611f00565b5b82600381111561105d5761105c611f00565b5b036110a2578060001c6040517ffce698f70000000000000000000000000000000000000000000000000000000081526004016110999190611f2f565b60405180910390fd5b6003808111156110b5576110b4611f00565b5b8260038111156110c8576110c7611f00565b5b0361110a57806040517fd78bce0c0000000000000000000000000000000000000000000000000000000081526004016111019190611f4a565b60405180910390fd5b5b5050565b606060ff60001b831461112c5761112583611349565b90506111b9565b81805461113890611f94565b80601f016020809104026020016040519081016040528092919081815260200182805461116490611f94565b80156111b15780601f10611186576101008083540402835291602001916111b1565b820191906000526020600020905b81548152906001019060200180831161119457829003601f168201915b505050505090505b92915050565b60007f8b73c3c69bb8fe3d512ecc4cf759cc79239f7b179b0ffacaa9a75d522b39400f7f00000000000000000000000000000000000000000000000000000000000000007f0000000000000000000000000000000000000000000000000000000000000000463060405160200161123a959493929190611fc5565b60405160208183030381529060405280519060200120905090565b60008060007f7fffffffffffffffffffffffffffffff5d576e7357a4501ddfe92f46681b20a08460001c111561129557600060038592509250925061133f565b6000600188888888604051600081526020016040526040516112ba9493929190612018565b6020604051602081039080840390855afa1580156112dc573d6000803e3d6000fd5b505050602060405103519050600073ffffffffffffffffffffffffffffffffffffffff168173ffffffffffffffffffffffffffffffffffffffff160361133057600060016000801b9350935093505061133f565b8060008060001b935093509350505b9450945094915050565b60606000611356836113bd565b90506000602067ffffffffffffffff8111156113755761137461143c565b5b6040519080825280601f01601f1916602001820160405280156113a75781602001600182028036833780820191505090505b5090508181528360208201528092505050919050565b60008060ff8360001c169050601f811115611404576040517fb3512b0c00000000000000000000000000000000000000000000000000000000815260040160405180910390fd5b80915050919050565b6000604051905090565b600080fd5b600080fd5b600080fd5b600080fd5b6000601f19601f8301169050919050565b7f4e487b7100000000000000000000000000000000000000000000000000000000600052604160045260246000fd5b6114748261142b565b810181811067ffffffffffffffff821117156114935761149261143c565b5b80604052505050565b60006114a661140d565b90506114b2828261146b565b919050565b600067ffffffffffffffff8211156114d2576114d161143c565b5b6114db8261142b565b9050602081019050919050565b82818337600083830152505050565b600061150a611505846114b7565b61149c565b90508281526020810184848401111561152657611525611426565b5b6115318482856114e8565b509392505050565b600082601f83011261154e5761154d611421565b5b813561155e8482602086016114f7565b91505092915050565b600080fd5b600073ffffffffffffffffffffffffffffffffffffffff82169050919050565b60006115978261156c565b9050919050565b6115a78161158c565b81146115b257600080fd5b50565b6000813590506115c48161159e565b92915050565b6000819050919050565b6115dd816115ca565b81146115e857600080fd5b50565b6000813590506115fa816115d4565b92915050565b60008115159050919050565b61161581611600565b811461162057600080fd5b50565b6000813590506116328161160c565b92915050565b600060a0828403121561164e5761164d611567565b5b61165860a061149c565b90506000611668848285016115b5565b600083015250602061167c848285016115b5565b6020830152506040611690848285016115eb565b60408301525060606116a484828501611623565b60608301525060806116b8848285016115b5565b60808301525092915050565b60008060c083850312156116db576116da611417565b5b600083013567ffffffffffffffff8111156116f9576116f861141c565b5b61170585828601611539565b925050602061171685828601611638565b9150509250929050565b6117298161158c565b82525050565b60006020820190506117446000830184611720565b92915050565b600080600060e0848603121561176357611762611417565b5b600084013567ffffffffffffffff8111156117815761178061141c565b5b61178d86828701611539565b935050602084013567ffffffffffffffff8111156117ae576117ad61141c565b5b6117ba86828701611539565b92505060406117cb86828701611638565b9150509250925092565b60007fff0000000000000000000000000000000000000000000000000000000000000082169050919050565b61180a816117d5565b82525050565b600081519050919050565b600082825260208201905092915050565b60005b8381101561184a57808201518184015260208101905061182f565b60008484015250505050565b600061186182611810565b61186b818561181b565b935061187b81856020860161182c565b6118848161142b565b840191505092915050565b611898816115ca565b82525050565b6000819050919050565b6118b18161189e565b82525050565b600081519050919050565b600082825260208201905092915050565b6000819050602082019050919050565b6118ec816115ca565b82525050565b60006118fe83836118e3565b60208301905092915050565b6000602082019050919050565b6000611922826118b7565b61192c81856118c2565b9350611937836118d3565b8060005b8381101561196857815161194f88826118f2565b975061195a8361190a565b92505060018101905061193b565b5085935050505092915050565b600060e08201905061198a600083018a611801565b818103602083015261199c8189611856565b905081810360408301526119b08188611856565b90506119bf606083018761188f565b6119cc6080830186611720565b6119d960a08301856118a8565b81810360c08301526119eb8184611917565b905098975050505050505050565b600060ff82169050919050565b611a0f816119f9565b8114611a1a57600080fd5b50565b600081359050611a2c81611a06565b92915050565b611a3b8161189e565b8114611a4657600080fd5b50565b600081359050611a5881611a32565b92915050565b6000806000806000806000610160888a031215611a7e57611a7d611417565b5b600088013567ffffffffffffffff811115611a9c57611a9b61141c565b5b611aa88a828b01611539565b975050602088013567ffffffffffffffff811115611ac957611ac861141c565b5b611ad58a828b01611539565b9650506040611ae68a828b016115eb565b9550506060611af78a828b01611638565b945050610100611b098a828b01611a1d565b935050610120611b1b8a828b01611a49565b925050610140611b2d8a828b01611a49565b91505092959891949750929550565b7f416d6f756e74206d7573742062652067726561746572207468616e2030000000600082015250565b6000611b72601d8361181b565b9150611b7d82611b3c565b602082019050919050565b60006020820190508181036000830152611ba181611b65565b9050919050565b7f496e76616c696420726563656976657220616464726573730000000000000000600082015250565b6000611bde60188361181b565b9150611be982611ba8565b602082019050919050565b60006020820190508181036000830152611c0d81611bd1565b9050919050565b6000608082019050611c2960008301876118a8565b611c366020830186611720565b611c436040830185611720565b611c50606083018461188f565b95945050505050565b7f496e76616c69642073656e646572206164647265737300000000000000000000600082015250565b6000611c8f60168361181b565b9150611c9a82611c59565b602082019050919050565b60006020820190508181036000830152611cbe81611c82565b9050919050565b7f496e76616c6964207369676e6174757265206f662073656e6465720000000000600082015250565b6000611cfb601b8361181b565b9150611d0682611cc5565b602082019050919050565b60006020820190508181036000830152611d2a81611cee565b9050919050565b7f496e76616c6964207369676e6174757265206f66207265636569766572000000600082015250565b6000611d67601d8361181b565b9150611d7282611d31565b602082019050919050565b60006020820190508181036000830152611d9681611d5a565b9050919050565b6000606082019050611db26000830186611720565b611dbf6020830185611720565b611dcc604083018461188f565b949350505050565b600081519050611de38161160c565b92915050565b600060208284031215611dff57611dfe611417565b5b6000611e0d84828501611dd4565b91505092915050565b7f546f6b656e207472616e73666572206661696c65640000000000000000000000600082015250565b6000611e4c60158361181b565b9150611e5782611e16565b602082019050919050565b60006020820190508181036000830152611e7b81611e3f565b9050919050565b611e8b816119f9565b82525050565b600060e082019050611ea6600083018a611720565b611eb36020830189611720565b611ec0604083018861188f565b611ecd606083018761188f565b611eda6080830186611e82565b611ee760a08301856118a8565b611ef460c08301846118a8565b98975050505050505050565b7f4e487b7100000000000000000000000000000000000000000000000000000000600052602160045260246000fd5b6000602082019050611f44600083018461188f565b92915050565b6000602082019050611f5f60008301846118a8565b92915050565b7f4e487b7100000000000000000000000000000000000000000000000000000000600052602260045260246000fd5b60006002820490506001821680611fac57607f821691505b602082108103611fbf57611fbe611f65565b5b50919050565b600060a082019050611fda60008301886118a8565b611fe760208301876118a8565b611ff460408301866118a8565b612001606083018561188f565b61200e6080830184611720565b9695505050505050565b600060808201905061202d60008301876118a8565b61203a6020830186611e82565b61204760408301856118a8565b61205460608301846118a8565b9594505050505056fea26469706673582212200f329bb7930d4b840ee3677c9d82a1b424cb178eb760d504f801d2b370f6af5264736f6c63430008180033",
  "linkReferences": {},
  "deployedLinkReferences": {}
}